S01E0000554152545F4D414E49504C55544154494F4E5F4C45442E7372656352
S11300000C9434000C9449000C9449000C9449005D
S11300100C9449000C9449000C9449000C94490038
S11300200C9449000C9449000C9449000C94490028
S11300300C9449000C9449000C9449000C94490018
S11300400C9449000C9449000C9449000C94490008
S11300500C9449000C9449000C9449000C944900F8
S11300600C9449000C94490011241FBECFEFD8E032
S1130070DEBFCDBF11E0A0E0B1E0E6E2F3E002C0F4
S113008005900D92A03CB107D9F70E9488000C940A
S113009091010C9400008AB184608AB98AB18860A5
S11300A08AB98AB180618AB90895662369F04BB12F
S11300B021E030E0B90102C0660F771F8A95E2F7AC
S11300C0CB01842B8BB908954BB121E030E0B90109
S11300D002C0660F771F8A95E2F7CB0180958423CF
S11300E08BB90895882351F08BB184608BB98BB19F
S11300F088608BB98BB180618BB908958BB18B7F8C
S11301008BB98BB1877F8BB98BB18F7E8BB90895F7
S1130110CF93DF93CDB7DEB760970FB6F894DEBF09
S11301200FBECDBF0E944B000E944B0180E091E0C6
S11301300E945E0181E00E9472002FEF8FE392E043
S1130140215080409040E1F700C0000080E00E9410
S11301507200FE01319680E1DF011D928A95E9F774
S113016000E010E018C00E947C01E1E0F0E0EC0F38
S1130170FD1FE00FF11F808392EF980F923198F3E7
S11301808D3088F38D3029F4CE0101960E945E01F2
S113019005C00F5F1F4F0F3011052CF3CE010196E0
S11301A0FC0101900020E9F73197E81BF90B8F015E
S11301B001501109A8016CE071E00E948301892BB0
S11301C029F461E082E00E945500C3CFA80167E1F1
S11301D071E0CE0101960E948301892B29F460E02D
S11301E082E00E945500B5CFA80163E271E0CE0120
S11301F001960E948301892B29F461E083E00E9427
S11302005500A7CFA80160E371E0CE0101960E94DA
S11302108301892B29F460E083E00E94550099CF83
S1130220A8016EE371E0CE0101960E948301892B3F
S113023029F461E084E00E9455008BCFA8016AE4B0
S113024071E0CE0101960E948301892B29F460E0BC
S113025084E00E9455007DCFA80167E571E0CE01DE
S113026001960E948301892B21F481E00E9472008F
S113027070CFA80163E671E0CE0101960E9483016C
S1130280892B21F480E00E94720063CF80E791E023
S11302900E945E015ECF1092C50087E08093C40087
S11302A088E18093C10086E08093C2000895909114
S11302B0C00095FFFCCF8093C60008950F931F9351
S11302C0CF93DF938C01C0E0D0E007C0F801EC0FBE
S11302D0FD1F80810E9457012196F80101900020A2
S11302E0E9F73197E01BF10BCE17DF0778F3DF91C5
S11302F0CF911F910F9108958091C0008823E4F756
S11303008091C6000895FB01DC014150504030F05B
S11303108D910190801919F40020B9F7881B990B6D
S10903200895F894FFCFDC
S113032657656C636F6D6521200D0A005245445F65
S11303364C45445F4F4E005245445F4C45445F4F25
S1130346464600475245454E5F4C45445F4F4E0076
S1130356475245454E5F4C45445F4F464600424C26
S113036655455F4C45445F4F4E00424C55455F4CE6
S113037645445F4F464600414C4C5F4C4544535FF1
S11303864F4E00414C4C5F4C4544535F4F4646002C
S11303964572726F722120556E61626C65207265BA
S11303A6636F676E697A65206120636F6D6D616E38
S11303B66420696E207468697320636F64652E20F7
S11303C6506C6561736520747279206F7468657208
S11303D620636F6D6D616E64732E2E2E200D0A00E0
S9030000FC
